:100000000C9488010C94B0010C94B0010C94B001D4
:100010000C94B0010C94B0010C94B0010C94B0019C
:100020000C94B0010C94B0010C94FD200C94CB1FE7
:100030000C94B0010C94B0010C94B0010C94B0017C
:100040000C94B0010C94B0010C94B0010C94B0016C
:100050000C94B0010C94B0010C94B0010C942A16CD
:100060000C94B0010C94FD190C942F1A0C94B0014F
:100070000C94B0010C94B0010C94B0010C94B0013C
:100080000C94B0010C94B0010C94B0010C94B0012C
:100090000C94B0010C94B0010C94B0010C94B0011C
:1000A0000C94B0010C94B0010C94B00144174717A4
:1000B00036173A1740176817681768174B174F1706
:1000C000531759175D176817631772756E2D627293
:1000D000696467650A000A000A00302E302E302E4F
:1000E00030003132372E302E302E31000000000229
:1000F00000090F0000030401000C000000000000D4
:100100000000000000000000000004080201104090
:100110008040102040804080080204018040201070
:10012000020110801020404004040404040304056C
:100130000202020204030202020206060606060684
:10014000040402020204000000002300260029002B
:100150002C002F0000000000250028002B002E009E
:10016000310000000000240027002A002D0030008C
:10017000080B000202020100090400000102020053
:1001800000052400100105240101010424020605D4
:100190002406000107058103100040090401000244
:1001A0000A00000007050202400000070583024024
:1001B000000000C18081C112010002020000404124
:1001C0002341800001010200011201000200000031
:1001D00040412341800001010200014172647569C0
:1001E0006E6F204C4C430041726475696E6F2059EC
:1001F000756E000403090400000000000000002ADE
:100200002B2800000000000000000000000000009B
:10021000000000000000002C9EB4A0A1A2A434A6FF
:10022000A7A5AE362D3738271E1F202122232425CF
:1002300026B333B62EB7B89F8485868788898A8B84
:100240008C8D8E8F909192939495969798999A9B76
:100250009C9D2F3130A3AD350405060708090A0B14
:100260000C0D0E0F101112131415161718191A1B56
:100270001C1DAFB1B0B5000904020001030000006D
:1002800009210101000122650007058403400001E6
:1002900005010902A1010901A10085010509190152
:1002A0002903150025019503750181029501750546
:1002B000810305010930093109381581257F750849
:1002C00095038106C0C005010906A1018502050745
:1002D00019E029E7150025017501950881029501AE
:1002E0007508810395067508150025650507190031
:1002F00029658100C000BE05420DE10EBD10C4108D
:100300001A151F169B185F1AE81A09252406E50E10
:1003100011241FBECFEFDAE0DEBFCDBF14E0A0E0B6
:10032000B1E0ECE0F4E502C005900D92A832B1070F
:10033000D9F726E0A8E2B4E001C01D92A635B207C5
:10034000E1F712E0CCE0D3E004C02297FE010E9466
:100350005927C63FD107C9F70E94F81A0C94F9290A
:100360000C940000CF92DF92EF92FF9260E08EED4E
:1003700094E00E9444086B017C016AE171E089E429
:1003800095E00E94841B22E030E0B701A60189E4D9
:1003900095E00E946F1D64E271E089E495E00E949F
:1003A000A31BC701B6010E94E725CB01FF90EF9088
:1003B000DF90CF900895CF92DF92EF92FF9240E0CE
:1003C00060E08EED94E00E94E4076B017C0168E23E
:1003D00071E089E495E00E94841B22E030E0B701DF
:1003E000A60189E495E00E946F1D66E371E089E44F
:1003F00095E00E94A31BC701B6010E94E725CB012F
:10040000FF90EF90DF90CF900895EF92FF920F93BF
:100410001F93CF93DF93CDB7DEB768970FB6F894ED
:10042000DEBF0FBECDBF8C017A014AE0CE0101963E
:100430000E944E224AE0B801CE010D960E944E2243
:100440006BE371E0CE0107960E94DF21BE01635F7E
:100450007F4FCE0107960E94272360E471E00E943F
:100460003A2363E471E00E943A23BE016F5F7F4F3D
:100470000E94272368E471E00E943A23BC01CE0168
:1004800043960E942D22CE0107960E947121CE0133
:100490000D960E947121CE0101960E9471216BE49C
:1004A00071E0CE0101960E94DF21B701CE010196D5
:1004B0000E942723BC01CE0107960E942D22CE0167
:1004C00001960E94712140E060E080EF94E00E947C
:1004D0003A09BE016D5E7F4F80EF94E00E94761B6B
:1004E00041E060E080EF94E00E943A09BE01695F5C
:1004F0007F4F80EF94E00E94761BCE0107960E940A
:100500007121CE0143960E94712168960FB6F8942E
:10051000DEBF0FBECDBFDF91CF911F910F91FF9036
:10052000EF900895CF92DF92EF92FF920F931F9377
:10053000CF93DF9300D000D000D0CDB7DEB78C01D1
:100540007B016A014FE2BC01CE0101960E94B91DF8
:10055000CE0101960E94732363E571E0CE010196FE
:100560000E945423882361F068E571E089E495E0F6
:100570000E94A31B4AE050E0B601C8010E94581C2B
:100580006CE771E0CE0101960E945423882361F04C
:1005900060E871E089E495E00E94A31B4AE050E026
:1005A000B701C8010E94581CCE0101960E9471211A
:1005B00026960FB6F894DEBF0FBECDBFDF91CF9168
:1005C0001F910F91FF90EF90DF90CF900895CF9201
:1005D000DF92EF92FF920F931F93CF93DF93CDB7EC
:1005E000DEB7C65AD1090FB6F894DEBF0FBECDBF35
:1005F0007C016B0164ED74E0CE018C5A9F4F0E9428
:10060000D215A5968FADA597882309F457C060EA47
:1006100071E089E495E00E94A31B68968EAD9FADC2
:1006200068979C838B836C968CAD9DADAEADBFAD52
:100630006C978D839E83AF83B887A0960CAD1DAD5C
:100640002EAD3FADA09709871A872B873C8780EC9A
:1006500093E09A838983A2968EAD9FADA2979E87E1
:100660008D87A4968EAD9FADA497988B8F87A59606
:100670008FADA597898BA6968FADA6978A8BA796E7
:100680008FADA7978B8B80E4E4E5F0E0EC0FFD1FC6
:100690007396DE01549601900D928A95E1F7A601BA
:1006A000B701CE0101960E949202CE0101960E94EE
:1006B0007A14CE018C5A9F4F0E943513CE018C5A6A
:1006C0009F4F0E947A14CA55DF4F0FB6F894DEBFD1
:1006D0000FBECDBFDF91CF911F910F91FF90EF9093
:1006E000DF90CF900895CF93DF93EB01BC01882773
:1006F00077FD8095982F0E941A269B01AC010E94DD
:10070000312781110DC0BE01882777FD8095982F74
:100710000E941A269B01AC010E9431278823F9F020
:1007200064EB71E089E495E00E94A31B40E060E087
:1007300080EF94E00E943A0968ED71E080EF94E068
:100740000E94841B41E060E080EF94E00E943A093F
:100750006DEE71E080EF94E00E94841B81E0DF91F8
:10076000CF9108950F931F93CF93DF9300D000D0C4
:1007700000D0CDB7DEB78C016AEF71E0CE010196F3
:100780000E94DF21BE016F5F7F4F8FE794E00E94E0
:100790006612CE0101960E9471216FEF71E0CE01C9
:1007A00001960E94DF21BE016F5F7F4F8FE794E0CB
:1007B0000E945611CE0101960E9471218FE794E0AC
:1007C0000E941F126FE774E0C8010E949F1DC801BC
:1007D00026960FB6F894DEBF0FBECDBFDF91CF9146
:1007E0001F910F910895CF92DF92EF92FF920F9396
:1007F0001F93CF93DF93CDB7DEB7C857D1090FB69C
:10080000F894DEBF0FBECDBF8C017B016A01CE0123
:100810008D589F4F0E94B203CE018D589F4F0E946A
:10082000732322E047E052E060E375E0CE010196D9
:100830000E94B010CE0101960E94EF0F882309F4A8
:1008400087C04AE0B601CE01855A9F4F0E944E22D2
:10085000BE016D587F4FCE018F599F4F0E942D22B0
:1008600061E471E0CE018F599F4F0E943A23B80195
:100870000E94272366E272E00E943A23BE01655A75
:100880007F4F0E942723BC01CE0183599F4F0E94B6
:100890002D22CE018F599F4F0E947121CE01855A82
:1008A0009F4F0E9471214AE0B701CE01855A9F4FA8
:1008B0000E944E22BE016D587F4FCE018F599F4F2F
:1008C0000E942D2261E471E0CE018F599F4F0E945A
:1008D0003A23B8010E94272364E372E00E943A237E
:1008E000BE01655A7F4F0E942723BC01CE01895962
:1008F0009F4F0E942D22CE018F599F4F0E94712140
:10090000CE01855A9F4F0E947121BE0163597F4FCE
:10091000CE0101960E94911BBE0169597F4FCE0105
:1009200001960E94911BCE0101960E946A106EE30F
:1009300072E089E495E00E94A31BCE0189599F4F84
:100940000E947121CE0183599F4F0E94712106C0E0
:1009500062E572E089E495E00E94A31BCE01019656
:100960000E949D10CE018D589F4F0E947121C85842
:10097000DF4F0FB6F894DEBF0FBECDBFDF91CF9132
:100980001F910F91FF90EF90DF90CF900895CF933C
:10099000DF9300D000D000D0CDB7DEB764E772E0BF
:1009A000CE0101960E94DF21BE016F5F7F4F8AE278
:1009B00094E00E946612CE0101960E9471216BE7BD
:1009C00072E0CE0101960E94DF21BE016F5F7F4F72
:1009D0008AE294E00E945611CE0101960E94712194
:1009E0008AE294E00E941F126AE274E0CE0101964E
:1009F0000E949F1DBE016F5F7F4F89E495E00E94BA
:100A0000911BCE0101960E94712126960FB6F89493
:100A1000DEBF0FBECDBFDF91CF910895EF92FF9261
:100A20000F931F93CF93DF93CDB7DEB762970FB6C7
:100A3000F894DEBF0FBECDBF68EB7BE080E090E0B6
:100A40000E94A31680912804909129040196909306
:100A50002904809328040E94B2018C010E94DB01CA
:100A60007C0160E972E089E495E00E94A31BB70174
:100A7000C8010E947303811174C06BEB72E089E4BA
:100A800095E00E94A31B68EE72E0CE0101960E94E1
:100A9000DF21AE014F5F5F4FB701C8010E94050221
:100AA000CE0101960E947121B701C8010E94E702A0
:100AB00068EE72E0CE0101960E94DF21A701B80125
:100AC000CE0101960E94F303CE0101960E9471218E
:100AD0008091280490912904BC01660F771F680F4C
:100AE000791F4AE0CE0107960E944E2261EF72E024
:100AF000CE0101960E94DF21BE01695F7F4FCE01CA
:100B000001960E94272366EE72E00E943A23BC0100
:100B1000CE010D960E942D22CE0101960E947121D8
:100B2000CE0107960E947121BE01635F7F4F89E469
:100B300095E00E94911B80912804909129040297CE
:100B400061F410922904109228040E94C7046DE0F9
:100B500073E089E495E00E94A31BCE010D960E94EC
:100B6000712162960FB6F894DEBF0FBECDBFDF9144
:100B7000CF911F910F91FF90EF900895CF92EF9238
:100B80000F9300E020E040E060E088E095E00E9404
:100B9000DC1A37E0C32E46E0E42E05E024E049E00D
:100BA00068E080EF94E00E940F0A26E04BE062E0EC
:100BB0008EED94E00E9471064EE055E063EB75E126
:100BC00084ED94E00E94C415109282041092810476
:100BD00088EE93E0A0E0B0E08093830490938404D7
:100BE000A0938504B093860440EB53E050938004B7
:100BF00040937F042EE035E030938C0420938B04E7
:100C000010929104109292041092930410922D0469
:100C100010922C0480932E0490932F04A093300400
:100C2000B093310450932B0440932A04309337043B
:100C30002093360410923C0410923D0410923E041E
:100C40000F91EF90CF9008958AE294E00E945F1296
:100C50008FE794E00C945F1240E855E260E070E0AA
:100C600089E495E00E94951820E042E060E180EF81
:100C700094E00E94540940E060E080EF94E00E941C
:100C80003A096DE273E080EF94E00E94841B41E03A
:100C900060E080EF94E00E943A096EE373E080EF39
:100CA00094E00E94841B8EED94E00E94920626E060
:100CB00040E950ED63E070E08091170590911805D0
:100CC0000E949B198EE095E00E943B0C80E395E02A
:100CD0000E94AE1081E08093DB0484ED94E00C94DC
:100CE0002515DC0115966C93159716964C9316975F
:100CF00070E0FB01E65FFE4FE4911796EC931797C7
:100D0000FB01E85DFE4F649118966C93189740E8DC
:100D10005EE360E070E01D964D935D936D937C9370
:100D200050970895CF93DF93EC0162E08D810E948C
:100D3000691740E358EF6FEF7FEF49875A876B875A
:100D40007C87DF91CF910895AF92BF92CF92DF92CF
:100D5000EF92FF920F931F93CF93DF93EC01AF803D
:100D6000662311F0BA2C01C0B12CA885B0E0AA0FFF
:100D7000BB1FAA5BBE4F40E050E0BA01FD01859168
:100D80009491FC0180818A218B1112C08A019B0100
:100D90000F5F1F4F2F4F3F4FCD84DE84EF84F888C5
:100DA0004C155D056E057F0538F4B901A801E6CF45
:100DB000342F252FCB0104C030E020E080E090E00C
:100DC000632F722FDF91CF911F910F91FF90EF90C2
:100DD000DF90CF90BF90AF900895CF92DF92EF92C7
:100DE000FF920F931F93CF93DF93CDB7DEB7C0541D
:100DF000D1400FB6F894DEBF0FBECDBF8C01F62EEA
:100E00000E947416F11016C0F801C184D284E384E4
:100E1000F4849B01AC012C193D094E095F0969015D
:100E20007A0130EDC31637E0D306E104F10410F483
:100E30008189BAC0F8016187728783879487148299
:100E4000138212821182108261E085810E94A217B2
:100E50006AEF70E080E090E00E94A31661E0F80184
:100E600085810E94691760E0F80185810E94A217C0
:100E700064E170E080E090E00E94A316F89461E0E5
:100E8000F80185810E94A21788E290E00E94CB16AB
:100E900062E0F80185810E9469178AE090E00E9473
:100EA000CB1660E0C8010E94A406672B682B692B53
:100EB00041F061E0C8010E94A406672B682B692BF2
:100EC00021F4F801118A78946EC06E01FFEBCF1AFD
:100ED000FEEFDF0A9E012F5F3F4F790160E0C801FE
:100EE0000E94A406F701608371838283938361E08B
:100EF000C8010E94A406F7016483758386839783E3
:100F0000F8E0EF0EF11CEC14FD0441F778949E011B
:100F10002F5F3F4F790120E030E0F70140815181A0
:100F20006281738184819581A681B78141155105C4
:100F300061057105B1F10097A105B10591F1F901C4
:100F4000F595E795F595E795F595E795E00FF11F90
:100F5000D080DD0C481759076A077B0710F0D08254
:100F600003C08D2D816080832F5F3F4FF8E0EF0E2F
:100F7000F11C2832310589F6F801248130E04081E6
:100F8000818190E0840F911D4281840F911D4381E6
:100F9000840F911D99272817390719F481E0818B57
:100FA00003C0F801118A80E0C05CDE4F0FB6F894F0
:100FB000DEBF0FBECDBFDF91CF911F910F91FF908C
:100FC000EF90DF90CF900895CF92DF92EF92FF9253
:100FD0000F931F93CF93DF93EC01162F642F0E9482
:100FE000ED06882309F443C08E818B3031F008F47C
:100FF0003EC08551823040F03AC06A8170E080E0A6
:1010000090E00E94182624C00A81602F6F7770E05C
:1010100080E090E00E941A2620E030E040E853E4AF
:101020000E94CE266B017C016B8170E080E090E035
:101030000E941A269B01AC01C701B6010E94172528
:101040002DEC3CEC4CEC5DE30E94CE2607FD905865
:10105000112389F026E636E646EE5FE30E94CE26AF
:1010600020E030E040E052E40E94172504C060E038
:1010700070E080EC9FE7DF91CF911F910F91FF907F
:10108000EF90DF90CF900895CF92DF92EF92FF9292
:10109000CF93DF93EC0160E00E94ED06882379F1A5
:1010A0008E818B3029F158F18551823040F568816D
:1010B00070E080E090E00E94182620E030E040E8F8
:1010C00053E40E94CE266B017C01698170E080E0D0
:1010D00090E00E941A269B01AC01C701B6010E9454
:1010E00017252DEC3CEC4CEC5DE30E94CE260BC0AA
:1010F000688170E080E090E00E94182604C060E003
:1011000070E080EC9FE7DF91CF91FF90EF90DF9050
:10111000CF900895CF93DF93EC0160E08E810E9421
:10112000A21781E090E00E94CB1661E08E810E94C0
:10113000A21781E090E00E94CB1660E08E810E94B1
:10114000A21784E690E0DF91CF910C94CB16CF925A
:10115000DF92EF92FF920F931F93CF93DF937C0167
:10116000C0E0D0E0C62ED12C87010C0F1D1F61E01E
:10117000F80187810E946917B6010C2E02C075958F
:1011800067950A94E2F76170F80187810E94A217BF
:101190002196C430D10541F7C701DF91CF911F914E
:1011A0000F91FF90EF90DF90CF900C948A08CF9230
:1011B000DF92EF92FF920F931F93CF93DF937C0107
:1011C000C0E0D0E0C62ED12C87010C0F1D1F61E0BE
:1011D000F80187810E946917B6010C2E02C075952F
:1011E00067950A94E2F76170F80187810E94A2175F
:1011F0002196C830D10541F7C701DF91CF911F91EA
:101200000F91FF90EF90DF90CF900C948A081F937E
:10121000CF93DF93EC01162F642F8C810E94A217CD
:101220008D818F3F19F060E00E94A2178F85612F9A
:1012300084FF06C0CE01DF91CF911F910C94D70897
:1012400070E084E0759567958A95E1F7CE010E947C
:10125000A708612FCE01DF91CF911F910C94A708B1
:1012600040E00C94070961E00E94300980ED97E0AE
:101270000C94CB16443008F043E0FC01238942175C
:1012800010F04FEF420FFC01E40FF11D2489260FEF
:101290002068622F0C943009FC016089262F24609D
:1012A000208B6C600C943009CF93DF93EC014230BB
:1012B00018F08F8588608F874B8B1C8A80E48D8B1C
:1012C0006E8B70E0605C7F4F6F8B222329F0413082
:1012D00019F48F8584608F8780E593EC0E94CB168C
:1012E00060E08C810E94A21760E08E810E94A217AC
:1012F0008D818F3F19F060E00E94A2176F8564FD19
:101300001DC063E0CE010E94A70884E991E10E941C
:10131000CB1663E0CE010E94A70884E991E10E9408
:10132000CB1663E0CE010E94A70886E990E00E94F8
:10133000CB1662E0CE010E94A70816C06062CE0103
:101340000E94300984E991E10E94CB166F856062AA
:10135000CE010E94300986E990E00E94CB166F858D
:101360006062CE010E9430096F856062CE010E94EA
:10137000300984E0888BCE010E944C09CE010E9486
:10138000330982E0898B66E0CE01DF91CF910C9426
:1013900030096F927F928F92AF92CF92EF920F931C
:1013A0001F93CF93DF93CDB7DEB73C01162F842F69
:1013B0005D854E853F859889F30184832583068367
:1013C000E782C086A18682865387448735879687C1
:1013D00061E00E946917F30185818F3F19F061E098
:1013E0000E94691761E0F30186810E946917112349
:1013F00019F0F301178603C080E1F301878720E02D
:1014000041E060E1C301DF91CF911F910F91EF9017
:10141000CF90AF908F907F906F900C9454098F92E3
:10142000AF92CF92EF920F93DC0113961C921E9213
:101430001297E0E5F3E0ED93FC931F921F921F9249
:101440001F928C2CAE2CC02EE22E042F2FEF462F95
:1014500061E00E94C9090F900F900F900F900F91BB
:10146000EF90CF90AF908F90089541E00E940709D0
:1014700081E090E00895FC01238134812627022E2B
:101480002295207F2025032E322F22952F700226B1
:10149000269532272327220F220F220F2025FC0119
:1014A000348323830895CF93DF93EC018D819E8154
:1014B000DC01ED91FC916C810190F081E02D0995AA
:1014C0008D819E81DC01ED91FC910190F081E02DF8
:1014D0006B81DF91CF9109948F929F92AF92BF92CF
:1014E000CF92DF92EF92FF92CF93DF93EC016B01EB
:1014F0000E9474164B015C01E12CF12C8D819E81C0
:10150000DC01ED91FC910680F781E02D099597FFB4
:101510000DC00E947416681979098A099B096C1517
:101520007D058E059F0550F38FEF9FEFDF91CF91E3
:10153000FF90EF90DF90CF90BF90AF909F908F90F3
:101540000895CF93DF93EC018D819E81DC01ED91B5
:10155000FC910480F581E02D09951816190654F4C4
:101560008D819E81DC01ED91FC910680F781E02D5B
:101570000995EACFDF91CF9108952F923F924F9234
:101580005F926F927F928F929F92AF92BF92CF9213
:10159000DF92EF92FF920F931F93CF93DF93CDB71C
:1015A000DEB72D970FB6F894DEBF0FBECDBF3C015E
:1015B0001B013C832B83BF82AE825801AC0CBD1C47
:1015C000A40EB51EBD824B2C512CCA01860F971F4D
:1015D00099878887D901A00FB11FBB87AA87F60119
:1015E000EE0DFF1DFD87EC87D30118968C915816E0
:1015F00008F026C1EFEFFFEFD3011496FC93EE93B2
:10160000139715968D919C911697DC01ED91FC91A5
:101610000190F081E02D6FEF09956FEFC3010E94FB
:101620003B0AF30185819681DC01ED91FC910190EB
:10163000F081E02DD3016C910995F3016081C30124
:101640000E943B0AD30115968D919C911697DC015F
:10165000ED91FC910190F081E02D6D810995642D53
:10166000C3010E943B0AF30185819681DC01ED9163
:10167000FC910190F081E02D6A2D09956A2DC3013E
:101680000E943B0A610188859985C816D906A1F098
:10169000F301858196818601DC01ED91FC91019039
:1016A000F081E02DD6016D916D010995F801608101
:1016B000C3010E943B0AE7CFCB80DC808A859B85F3
:1016C000C816D906B1F0D30115968D919C91169745
:1016D0008601DC01ED91FC910190F081E02DD601B5
:1016E0006D916D010995F8016081C3010E943B0A6B
:1016F000E5CF87018C859D8508171907B1F0D301C7
:1017000015968D919C9116976801DC01ED91FC91E5
:101710000190F081E02DD8016D918D010995F601C0
:101720006081C3010E943B0AE5CFC3010E94530AB6
:1017300064E670E0C3010E946C0A8F3F910509F0D6
:1017400074C0EFEFFFEFD3011496FC93EE93139761
:101750006FEFC3010E943B0A65E070E0C3010E9485
:101760006C0AD3016C91262F30E08217930709F0A1
:101770005CC0C3010E943B0A6AE070E0C3010E94A2
:101780006C0A8C0197FD51C0682FC3010E943B0A6F
:101790006AE070E0C3010E946C0A6C0197FD45C0CD
:1017A000682FC3010E943B0A0A83198209811A81AA
:1017B0000C0D1D1DC12CD12C65E070E0C301C016BD
:1017C000D106A1F0C814D90489F00E946C0A97FDD3
:1017D00009C0EE81FF81EC0DFD1D8083682FC301E0
:1017E0000E943B0ABFEFCB1ADB0AE6CF0E946C0ACD
:1017F0006C0197FD1AC065E070E0C3010E946C0A9D
:1018000097FD13C0DC2CCC24C80ED91EF3018381B4
:1018100094818C159D0549F480818F5F8083C80178
:101820008016910678F4C4010DC0539464E670E00C
:1018300080E090E00E94A316C3010E94A10AD4CECA
:101840008FEF9FEF2D960FB6F894DEBF0FBECDBF82
:10185000DF91CF911F910F91FF90EF90DF90CF908C
:10186000BF90AF909F908F907F906F905F904F90C0
:101870003F902F9008953F924F925F926F927F9288
:101880008F929F92AF92BF92CF92DF92EF92FF9290
:101890000F931F93CF93DF93CDB7DEB72E970FB67D
:1018A000F894DEBF0FBECDBF3C01DC0117968C91D2
:1018B00017978111CFC081E017968C93C3010E94C6
:1018C000A10A68EE73E080E090E00E94A316F301A5
:1018D00085819681DC01ED91FC910480F581E02DFC
:1018E00009951816190654F355E0552E44244394CF
:1018F00062E3362EE0E1F1E0DE011696852D0190DF
:101900000D928A95E1F7F3014086812C912CA12C50
:10191000B12CC12CD12CE12CF12C00E010E020E006
:1019200030E045E050E0BE016A5F7F4FC3010E9496
:10193000BD0A63E0D30115968D919C9116970E9484
:10194000861B6AEF70E080E090E00E94A31668EDCD
:1019500070E0F301858196810E94511B6AEF70E06F
:1019600080E090E00E94A31666ED70E0D30115962A
:101970008D919C9116970E94511B64EF71E080E05D
:1019800090E00E94A3166AEC70E0F30185819681D5
:101990000E94511B64EF71E080E090E00E94A3166A
:1019A000C3010E94A10AE5E1F1E0DE011196852D57
:1019B00001900D928A95E1F7D30118963C9244E08C
:1019C000842E912CFE013B965F0120E030E045E043
:1019D00050E0BE016F5F7F4FC3010E94BD0A8F3F81
:1019E000FFEF9F0739F468EE73E080E090E00E941B
:1019F000A31680CF2B852111FFCF049711F52C85DD
:101A000030E02053310944E6429FC001439F900DCE
:101A100011242D8530E0205331096AE0629FA00136
:101A2000639F500D1124840F951F2E8530E02053A5
:101A30003109820F931FD30112969C938E931197B5
:101A400005C084E690E0F3019283818382E3D301B1
:101A500018968C932E960FB6F894DEBF0FBECDBFAE
:101A6000DF91CF911F910F91FF90EF90DF90CF907A
:101A7000BF90AF909F908F907F906F905F904F90AE
:101A80003F90089510920E0589E995E09093140512
:101A90008093130510921505109216059093180562
:101AA0008093170508958F929F92AF92BF92CF9225
:101AB000DF92EF92FF920F931F9348015901C12CBF
:101AC000D12CE12CF12C00E010E020E030E00E946D
:101AD000BD0A1F910F91FF90EF90DF90CF90BF90C4
:101AE000AF909F908F9008950F931F9300E010E0A8
:101AF00020E030E00E94530D1F910F910895CF9385
:101B0000DF9300D0CDB7DEB7DC0152968C915297AF
:101B1000882389F080E589836A8342E050E0BE0132
:101B20006F5F7F4F1C968D919C911D970E94740D45
:101B300081E090E01FC05596ED91FC915697539629
:101B40008C91539791E0980F53969C935397E80F7D
:101B5000F11D608353969C91539754968C915497A2
:101B6000981308C0ED91FC9111970284F385E02D44
:101B7000CD0109950F900F90DF91CF910895AF920D
:101B8000BF92CF92DF92EF92FF920F931F93CF936A
:101B9000DF9300D0CDB7DEB75C017A01DC0152964D
:101BA0008C91811104C08B01E60EF71E41C06A01C1
:101BB000BFEFCB1ADB0AC60169837A830E940D1B33
:101BC0008C01FC0180E58193A70169817A81CF01B5
:101BD0000E946629A601B801F501848595850E94B9
:101BE000740D0115110519F0C8010E94111BC701E0
:101BF00022C0D5015596ED91FC91569753968C9144
:101C0000539791E0980F53969C93D8019D918D0125
:101C1000E80FF11D9083F50193898489981308C01A
:101C20000190F081E02D0284F385E02DC501099536
:101C30000E151F05F1F60F900F90DF91CF911F91B8
:101C40000F91FF90EF90DF90CF90BF90AF900895ED
:101C5000CF93DF93EC018A8981110AC04B8950E050
:101C60006D897E898C859D850E94740D81E08B8BAA
:101C7000DF91CF910895FC011382128248EE53E068
:101C800060E070E0448355836683778388E593E062
:101C9000918380838EE095E09587848716861786EA
:101CA000118A108A81E0828B0895CF93DF93EC0133
:101CB0008A89811108C08D899E89009711F00E9440
:101CC000111B81E08A8BDF91CF910895EF92FF92F3
:101CD0000F931F93CF93DF9300D0CDB7DEB77C0176
:101CE000FC018685811114C0178680E7898380E214
:101CF0008A832089318900E210E042E050E0BE0191
:101D00006F5F7F4F848595850E94530DF70186870D
:101D10000F900F90DF91CF911F910F91FF90EF9057
:101D20000895CF93DF93EC010E94660E8E8590E0BC
:101D3000DF91CF910895CF93DF93EC010E94660E5F
:101D40008E85882369F081508E87E889F9898F858F
:101D500091E0980F9F87E80FF11D808190E002C00D
:101D60008FEF9FEFDF91CF910895CF93DF93EC0139
:101D70000E94660E8E85882341F08F85E889F98957
:101D8000E80FF11D808190E002C08FEF9FEFDF919F
:101D9000CF910895CF93DF93EC010E94550E88896F
:101DA0009989009721F00E94111B198A188ADF91E6
:101DB000CF91089528E533E0FC01318320830C9412
:101DC000CA0E89E195E00C943B0E89E195E00C94F4
:101DD000DA0ECF93DF931F92CDB7DEB76983DC01B4
:101DE000ED91FC910280F381E02D41E050E0BE01D5
:101DF0006F5F7F4F09950F90DF91CF910895089500
:101E00006F927F928F929F92AF92BF92CF92DF920A
:101E1000EF92FF920F931F93CF93DF9300D01F9207
:101E2000CDB7DEB79B013A01FC01E85AFF4F408174
:101E30004F3F21F147E64983319640814A833997E4
:101E400088248394912CCE0103965C01C12CD12C63
:101E5000E12CF12C830142E050E0BE016F5F7F4F27
:101E6000808191810E94BD0A8B81882329F090E0B6
:101E700091958195910904C0C30102C08FEF9FEF36
:101E80000F900F900F90DF91CF911F910F91FF90C6
:101E9000EF90DF90CF90BF90AF909F908F907F900A
:101EA0006F9008952F923F924F925F926F927F9220
:101EB0008F929F92AF92BF92CF92DF92EF92FF925A
:101EC0000F931F93CF93DF93CDB7DEB728970FB64D
:101ED000F894DEBF0FBECDBF3C018B01FC01138225
:101EE000128288EE93E0A0E0B0E084839583A6831D
:101EF000B78382E993E0918380831301F0E52F0E8D
:101F0000311CF101318320837301F2E5EF0EF11CE6
:101F100067E271E0C70148870E94DF21230188E55D
:101F2000480E511C4885F2014083B801C7010E9448
:101F3000362282E7898387E78A8381E68B8386E47A
:101F40008E83F2018081FE01E80FF11D81818F8374
:101F500081E090E0F30197878687EA5AFF4F00817E
:101F60001181F7012081318192E0892E912CCE01DF
:101F700004965C01C12CD12CE12CF12C42E050E004
:101F8000BE016A5F7F4FF101808191810E94BD0A8D
:101F90008C81882321F08FEFF201808307C0F30149
:101FA000E75AFF4F8D818083F301148628960FB680
:101FB000F894DEBF0FBECDBFDF91CF911F910F917F
:101FC000FF90EF90DF90CF90BF90AF909F908F9059
:101FD0007F906F905F904F903F902F900895FC01FD
:101FE000E85AFF4F81E090819F3F09F480E0089517
:101FF000EF92FF920F931F93CF93DF9300D01F9226
:10200000CDB7DEB77C01FC018485811124C0158623
:1020100087E489838FE38B83E75AFF4F80818A832C
:1020200000E410E09701205F3F4F43E050E0BE0125
:102030006F5F7F4F3997808191810E94530DF70127
:102040008487811102C0148606C0F70195859F5FC1
:102050009587815084870F900F900F90DF91CF91DB
:102060001F910F91FF90EF900895CF93DF93EC01B4
:102070000E94F80F8C85882359F081508C878D85BC
:1020800091E0980F9D87C80FD11D888990E002C00C
:102090008FEF9FEFDF91CF910895CF93DF93EC0106
:1020A0000E94F80F8C85882331F08D85C80FD11DD3
:1020B000888990E002C08FEF9FEFDF91CF91089564
:1020C000CF93DF93EC010E94F80F8C8590E0DF91B5
:1020D000CF910895EF92FF920F931F93CF93DF93C9
:1020E00000D01F92CDB7DEB77C0128E5E20EF11CCF
:1020F000F70120812F3FB9F026E629833196208110
:102100002A83399701E010E09E012D5F3F4F42E0A6
:1021100050E0BE016F5F7F4F808191810E94530D1F
:102120008FEFF70180830F900F900F90DF91CF9189
:102130001F910F91FF90EF900895CF93DF93EC01E3
:1021400082E993E099838883CE010E946A10CE01D0
:102150008E5A9F4FDF91CF910C94712181E00895A9
:10216000CF93DF93EC01BA01422F2EE035E00E94BD
:10217000520FCE01DF91CF9108958EE095E09093BC
:1021800031058093300508958EE095E090933305F6
:1021900080933205089508950F931F93CF93DF9393
:1021A00000D01F92CDB7DEB729E42983FC01268534
:1021B0002A836B8300E010E020E030E043E050E051
:1021C000BE016F5F7F4F848595850E94530D81E02E
:1021D00090E00F900F900F90DF91CF911F910F9192
:1021E0000895EF92FF920F931F93CF93DF9300D048
:1021F0001F92CDB7DEB77C01FC018389811117C026
:10220000148A8FE4898386858A8380E48B8397018F
:102210002B5E3F4F00E410E043E050E0BE016F5FF3
:102220007F4F848595850E94530DF701838B0F9016
:102230000F900F90DF91CF911F910F91FF90EF9032
:102240000895CF93DF93EC010E94F1108B8990E009
:10225000DF91CF910895CF93DF93EC010E94F110AD
:102260008B89882359F081508B8B8C8991E0980F52
:102270009C8BC80FD11D8D8990E002C08FEF9FEF1E
:10228000DF91CF910895CF93DF93EC010E94F1107D
:102290008B89882331F08C89C80FD11D8D8990E0FE
:1022A00002C08FEF9FEFDF91CF9108950F931F939F
:1022B000CF93DF93EC018B016EE973E088899989F4
:1022C0000E94D722B80188899989DF91CF911F9107
:1022D0000F910C94D0226F927F928F929F92AF9227
:1022E000BF92CF92DF92EF92FF920F931F93CF9303
:1022F000DF9300D01F92CDB7DEB73C0182E58B8320
:10230000D3015096ED91FC91519704811581208164
:10231000318182E0882E912CFE0131965F01C12C23
:10232000D12CE12CF12C41E050E0BE016D5F7F4FDC
:102330001C968D919C911D970E94BD0A8A8190E008
:10234000D3011F969C938E931E9750960D911C91CE
:1023500051970115110531F0C8010E947121C80182
:102360000E940F1BF301118A108A8981811102C01A
:1023700081E0828B0F900F900F90DF91CF911F9192
:102380000F91FF90EF90DF90CF90BF90AF909F9014
:102390008F907F906F9008950F931F93CF93DF934B
:1023A00000D01F92CDB7DEB722E72983FC01268536
:1023B0002A8301E010E09E012D5F3F4F42E050E094
:1023C000BE016F5F7F4F848595850E94530D81E02C
:1023D0009B81913009F080E00F900F900F90DF917A
:1023E000CF911F910F9108950F931F93CF93DF9378
:1023F00000D000D0CDB7DEB727E52B83FC012685C2
:102400002C8302E010E09E012F5F3F4F42E050E03E
:10241000BE016D5F7F4F848595850E94530D898134
:1024200090E0982F88272A81820F911D0F900F909E
:102430000F900F90DF91CF911F910F910895CF933F
:10244000DF93EC010E946B11CE010E94CC11882316
:1024500039F064E670E080E090E00E94A316F4CFCB
:10246000CE01DF91CF910C94F411EF92FF920F9374
:102470001F93CF93DF9300D0CDB7DEB77C01FC0173
:102480008289882389F087E7898386858A8300E0AB
:1024900010E020E030E042E050E0BE016F5F7F4F8F
:1024A000848595850E94530DF701128A0F900F9035
:1024B000DF91CF911F910F91FF90EF90089520EB46
:1024C00033E0FC01318320830C943512EF92FF92AC
:1024D0000F931F93CF93DF9300D0CDB7DEB77C016E
:1024E00069837A830E94351286E090E00E940B1B7C
:1024F0008C0169817A810E942D22F701118B008B5A
:102500000F900F90DF91CF911F910F91FF90EF905F
:102510000895FC01808908950895EF92FF920F932A
:102520001F93CF93DF93CDB7DEB728970FB6F894FC
:10253000DEBF0FBECDBF7C018B0167E271E0CE0133
:1025400001964F8358870E94DF2162E170E0CE013F
:1025500001960E94A221D80112966C91CE0101969B
:102560000E94FA226EE2CE0101960E94E722F80153
:102570006381CE0101960E94FA226EE2CE0101969D
:102580000E94E722D80114966C91CE0101960E9418
:10259000FA226EE2CE0101960E94E722F8016581DF
:1025A000CE0101960E94FA22D701ED91FC9169813A
:1025B0007A810684F785E02D4F815885C7010995FA
:1025C0008C01CE0101960E947121C80128960FB698
:1025D000F894DEBF0FBECDBFDF91CF911F910F9159
:1025E000FF90EF9008956F927F928F929F92AF929B
:1025F000BF92CF92DF92EF92FF920F931F93CF93F0
:10260000DF9300D0CDB7DEB7FC019B013A01808992
:102610008823C1F08CE6898386858A83812C912C5E
:10262000A12CB12CC12CD12CE12CF12C8A0142E03F
:1026300050E0BE016F5F7F4F848595850E94BD0A83
:10264000C30102C080E090E00F900F90DF91CF9126
:102650001F910F91FF90EF90DF90CF90BF90AF90C0
:102660009F908F907F906F900895EF92FF920F93BD
:102670001F93CF93DF9300D0CDB7DEB77C01FC0171
:102680008089882389F08AE6898386858A8300E0A9
:1026900010E020E030E042E050E0BE016F5F7F4F8D
:1026A000848595850E94530DF701108A0F900F9035
:1026B000DF91CF911F910F91FF90EF9008950F93AD
:1026C0001F93CF93DF9300D01F92CDB7DEB7FC01ED
:1026D00080898823B1F08CE4898386858A8301E030
:1026E00010E09E012D5F3F4F42E050E0BE016F5F62
:1026F0007F4F848595850E94530D81E09B819130A9
:1027000009F080E00F900F900F90DF91CF911F9113
:102710000F9108956F927F928F929F92AF92BF9286
:10272000CF92DF92EF92FF920F931F93CF93DF939D
:10273000CDB7DEB727970FB6F894DEBF0FBECDBF7B
:102740003C019B0183E489835A834B83DB010D9019
:102750000020E9F78D0101501109061B170B882491
:102760008394912CFE0137965F01C12CD12CE12C72
:10277000F12C43E050E0BE016F5F7F4FD3011C9608
:102780008D919C911D970E94BD0A892BE1F12F81AB
:10279000822F90E0F3019787868783E68C832D83D1
:1027A00001E010E09E012A5F3F4F42E050E0BE0191
:1027B0006C5F7F4FD3011C968D919C911D970E9459
:1027C000530D8E81882339F061E070E080E090E065
:1027D0000E94A316E5CF81E0F301808B0190F08188
:1027E000E02D0488F589E02DC301099581110EC003
:1027F000D301ED91FC910288F389E02DC301099585
:10280000F3011786168680E090E002C081E090E038
:1028100027960FB6F894DEBF0FBECDBFDF91CF91E4
:102820001F910F91FF90EF90DF90CF90BF90AF90EE
:102830009F908F907F906F9008950F931F93CF93E9
:10284000DF9300D01F92CDB7DEB7FC0180898823CB
:10285000A9F08CE6898386858A836B8300E010E08B
:1028600020E030E043E050E0BE016F5F7F4F8485A1
:1028700095850E94530D81E090E002C080E090E0D9
:102880000F900F900F90DF91CF911F910F910895AE
:102890000F931F93FC011382128208EE13E020E0D5
:1028A00030E0048315832683378380EC93E09183A3
:1028B0008083558744877787668781E0808B118A7C
:1028C0001F910F910895FC01CB011382128248EEF3
:1028D00053E060E070E0448355836683778320ECA7
:1028E00033E0318320839587848717861686108A84
:1028F000118A089520EC33E0FC0131832083089590
:10290000EF92FF920F931F93CF93DF9300D01F920C
:10291000CDB7DEB77C01FC018189811117C0128A15
:102920008BE4898386858A8380E48B8397012D5E7F
:102930003F4F00E410E043E050E0BE016F5F7F4F87
:10294000848595850E94530DF701818B0F900F9020
:102950000F90DF91CF911F910F91FF90EF9008950D
:10296000CF93DF93EC010E948014898990E0DF917E
:10297000CF910895CF93DF93EC010E948014898951
:10298000882359F08150898B8A8991E0980F9A8B1E
:10299000C80FD11D8B8990E002C08FEF9FEFDF91B0
:1029A000CF910895CF92DF92EF92FF920F931F93F2
:1029B000CF93DF93EC016A018B01E12CF12C898923
:1029C0008823A9F08FEFE81AF80A8A8991E0980F16
:1029D0009A8BFE01E80FF11D8389F80181938F0125
:1029E00089898150898BEC14FD0448F306C0CE011F
:1029F0000E94801489898111E5CFC701DF91CF91B1
:102A00001F910F91FF90EF90DF90CF900895CF939B
:102A1000DF93EC010E9480148989882331F08A8930
:102A2000C80FD11D8B8990E002C08FEF9FEFDF911F
:102A3000CF9108950F9300E020E040E060E084E350
:102A400095E00E94DC1A0F9108956F927F928F9209
:102A50009F92AF92BF92CF92DF92EF92FF920F932D
:102A60001F93CF93DF93CDB7DEB72A970FB6F894B5
:102A7000DEBF0FBECDBF3C018EE48F83F3018481A6
:102A800095819887898762EE70E0CE0101960E9459
:102A90009B22F3018781811106C06AED70E0CE01AF
:102AA00001960E947A220D811E8129813A81882413
:102AB0008394912CCE010A965C01C12CD12CE12C7F
:102AC000F12C43E050E0BE01695F7F4FF301808548
:102AD00091850E94BD0A81E09A85913009F080E0DD
:102AE000F3018683CE0101960E9471212A960FB6CA
:102AF000F894DEBF0FBECDBFDF91CF911F910F9134
:102B0000FF90EF90DF90CF90BF90AF909F908F900D
:102B10007F906F9008958F929F92AF92BF92CF92C5
:102B2000DF92EF92FF920F931F93CF93DF9300D02A
:102B3000CDB7DEB722E629836A83812C912CA12CA4
:102B4000B12CC12CD12CE12CF12C00E010E020E0C4
:102B500030E042E050E0BE016F5F7F4FFC018085B6
:102B600091850E94BD0A81E090E00F900F90DF9167
:102B7000CF911F910F91FF90EF90DF90CF90BF907A
:102B8000AF909F908F900895FC01138212828CED7C
:102B900093E09183808375836483168217825187C3
:102BA000408708956F927F928F929F92AF92BF92CB
:102BB000CF92DF92EF92FF920F931F93CF93DF9309
:102BC00000D0CDB7DEB73C01FB018BE68A838824B9
:102BD0008394912CCE0101965C01C12CD12CE12C67
:102BE000F12C00E010E020E030E041E050E0BE01D8
:102BF0006E5F7F4F808591850E94BD0A892B31F4DD
:102C00006EE075E0C3010E94631407C0698170E043
:102C10004EE055E0C3010E944814C3010F900F908D
:102C2000DF91CF911F910F91FF90EF90DF90CF90A8
:102C3000BF90AF909F908F907F906F9008950F936B
:102C400000E020E040E060E08AE395E00E94DC1ACA
:102C50000F9108951F920F920FB60F9211242F9388
:102C60003F938F939F93AF93BF9380914105909132
:102C70004205A0914305B09144053091400523E001
:102C8000230F2D3720F40196A11DB11D05C026E8A4
:102C9000230F0296A11DB11D20934005809341058D
:102CA00090934205A0934305B09344058091450558
:102CB00090914605A0914705B09148050196A11D48
:102CC000B11D8093450590934605A0934705B093A9
:102CD0004805BF91AF919F918F913F912F910F9098
:102CE0000FBE0F901F9018952FB7F8946091410573
:102CF0007091420580914305909144052FBF08953E
:102D00003FB7F8948091450590914605A0914705FD
:102D1000B091480526B5A89B05C02F3F19F0019634
:102D2000A11DB11D3FBF6627782F892F9A2F620FF3
:102D3000711D811D911D42E0660F771F881F991F2D
:102D40004A95D1F70895CF92DF92EF92FF92CF93F9
:102D5000DF936B017C010E948016EB01C114D1044A
:102D6000E104F10489F00E94D2230E9480166C1BBA
:102D70007D0B683E734090F381E0C81AD108E108EA
:102D8000F108C851DC4FEACFDF91CF91FF90EF906F
:102D9000DF90CF9008958230910538F0880F991F09
:102DA000880F991F05970197F1F70895789484B5D6
:102DB000826084BD84B5816084BD85B5826085BD37
:102DC00085B5816085BDEEE6F0E08081816080831D
:102DD000E1E8F0E010828081826080838081816000
:102DE0008083E0E8F0E0808181608083E1E9F0E0C9
:102DF000808182608083808181608083E0E9F0E06F
:102E0000808181608083E1ECF0E080818460808358
:102E1000808182608083808181608083E3ECF0E048
:102E2000808181608083E0ECF0E08081826080833B
:102E3000E2ECF0E0808181608083EAE7F0E080816D
:102E400084608083808182608083808181608083D0
:102E5000808180688083089590E0FC013197EF3095
:102E6000F105B0F5EA5AFF4F0C9457278091800086
:102E70008F7703C0809180008F7D809380000895BC
:102E800080918000877FF9CF84B58F7702C084B5A9
:102E90008F7D84BD0895809190008F7707C08091C9
:102EA00090008F7D03C080919000877F8093900079
:102EB00008958091C0008F7703C08091C0008F7DFE
:102EC0008093C00008958091C200877F8093C200E4
:102ED0000895CF93DF9390E0FC01E65FFE4F2491CD
:102EE000FC01E85DFE4F8491882349F190E0880F52
:102EF000991FFC01EE59FE4FA591B4918C5A9E4F3B
:102F0000FC01C591D4919FB7611108C0F8948C91D0
:102F1000209582238C93888182230AC0623051F4E9
:102F2000F8948C91322F309583238C938881822B57
:102F3000888304C0F8948C91822B8C939FBFDF917F
:102F4000CF9108950F931F93CF93DF931F92CDB727
:102F5000DEB7282F30E0F901E451FF4F8491F901E9
:102F6000E65FFE4F1491F901E85DFE4F04910023E6
:102F7000C9F0882321F069830E942C176981E02F12
:102F8000F0E0EE0FFF1FEC5AFE4FA591B4919FB7F2
:102F9000F8948C91611103C01095812301C0812B9D
:102FA0008C939FBF0F90DF91CF911F910F91089548
:102FB000CF93DF931F92CDB7DEB76983DC01ED912C
:102FC000FC910280F381E02D41E050E0BE016F5F93
:102FD0007F4F09950F90DF91CF910895CF93DF93A5
:102FE000EC018C859D8597FF05C082E00E94A01EA4
:102FF0009D878C878C859D85DF91CF91089583E097
:103000000C94F320FC018485958597FD06C082E031
:103010000E94481E90E00196089582E00E94481E9A
:1030200090E00895FC018485958597FD05C02FEFFC
:103030003FEF35872487089582E00C94A01ECF933C
:10304000DF93EC0180910D01882331F083E00E9431
:10305000D11E1816190634F081E090E09B838A8314
:1030600080E090E0DF91CF910895FC0120812E5FF8
:10307000208342E450E060E771E080E80C946C1F2C
:10308000FC0181819081913A59F4813209F03CC070
:1030900047E050E066E071E080E00E946C1F43C0B2
:1030A000913291F5803239F467E070E086E091E08A
:1030B0000E949D1F06C0823209F035C08281809334
:1030C0000D018091060190910701A0910801B09136
:1030D0000901803B9440A105B105C1F480910D0127
:1030E00080FD14C087E797E790930108809300085C
:1030F0002BE088E190E00FB6F894A89580936000EB
:103100000FBE209360000FC080E0089588E10FB6E5
:10311000F89480936000109260000FBEA895109202
:1031200001081092000881E008952FEF3FEFFC01A5
:1031300035872487089510924C0510924B0588EE30
:1031400093E0A0E0B0E080934D0590934E05A093EE
:103150004F05B093500586EE93E090934A05809317
:1031600049058FEF9FEF909356058093550508957D
:10317000FC01818D228D90E0805C9F4F821B910924
:103180008F7399270895FC01918D828D981731F0E6
:10319000828DE80FF11D858D90E008958FEF9FEFF0
:1031A0000895FC01918D828D981761F0828DDF0169
:1031B000A80FB11D5D968C91928D9F5F9F73928F2A
:1031C00090E008958FEF9FEF089585E59AE1892BB0
:1031D00049F080E090E0892B29F00E94551A811176
:1031E0000C9400000895FC01848DDF01A80FB11D2F
:1031F000A35ABF4F2C91848D90E001968F7399272D
:10320000848FA689B7892C93A089B1898C91806419
:103210008C93938D848D981306C00288F389E02DDA
:1032200080818F7D80830895CF93DF93EC01888D1B
:103230008823C9F0EA89FB89808185FD05C0A889BA
:10324000B9898C9186FD0FC00FB607FCF5CF808140
:1032500085FFF2CFA889B9898C9185FFEDCFCE018A
:103260000E94F318E7CFDF91CF910895CF92DF92BC
:10327000FF920F931F93CF93DF931F92CDB7DEB7CB
:103280006C0181E0D60158968C9358975B969C917F
:103290005B975C968C915C97981307C05096ED9164
:1032A000FC915197808185FD2EC0F601038D10E0C1
:1032B0000F5F1F4F0F731127F02EF601848DF81248
:1032C00011C00FB607FCF9CFD6015096ED91FC91D5
:1032D0005197808185FFF1CFC60169830E94F31861
:1032E0006981EBCF838DE80FF11DE35AFF4F6083B7
:1032F000D6015B960C935B975296ED91FC91539798
:10330000808180620CC0D6015696ED91FC91579752
:1033100060835096ED91FC91519780818064808309
:1033200081E090E00F90DF91CF911F910F91FF907E
:10333000DF90CF900895BF92CF92DF92EF92FF92ED
:10334000CF93DF93EC016A017B01B22EE889F98902
:1033500082E08083411581EE580761057105A1F077
:1033600060E079E08DE390E0A70196010E943527A7
:1033700021503109410951095695479537952795AF
:10338000211580E1380798F0E889F989108260E812
:1033900074E88EE190E0A70196010E943527215044
:1033A0003109410951095695479537952795EC857F
:1033B000FD853083EE85FF852083188EEC89FD899D
:1033C000B082EA89FB89808180618083EA89FB89F8
:1033D000808188608083EA89FB898081806880831E
:1033E000EA89FB8980818F7D8083DF91CF91FF9077
:1033F000EF90DF90CF90BF9008951F920F920FB67D
:103400000F9211242F938F939F93EF93FF93E0914B
:10341000A905F091AA058081E091AF05F091B00572
:1034200082FD12C090818091B2058F5F8F732091D1
:10343000B305821751F0E091B205F0E0E756FA4F7C
:10344000958F8093B20501C08081FF91EF919F918C
:103450008F912F910F900FBE0F901F9018951F9274
:103460000F920FB60F9211242F933F934F935F93B8
:103470006F937F938F939F93AF93BF93EF93FF933C
:1034800089E995E00E94F318FF91EF91BF91AF9108
:103490009F918F917F916F915F914F913F912F916C
:1034A0000F900FBE0F901F90189589E995E00E942C
:1034B000B81821E0892B09F420E0822F089510929A
:1034C0009C0510929B0588EE93E0A0E0B0E080930D
:1034D0009D0590939E05A0939F05B093A00586EF50
:1034E00093E090939A05809399058DEC90E09093EA
:1034F000A6058093A5058CEC90E09093A805809399
:10350000A70588EC90E09093AA058093A90589EC23
:1035100090E09093AC058093AB058AEC90E090939B
:10352000AE058093AD058EEC90E09093B00580934E
:10353000AF051092B2051092B3051092B405109227
:10354000B5050895AF92BF92CF92DF92EF92FF92AE
:103550000F931F93CF93DF936C017B01C0E0D0E00A
:1035600000E010E0F601EC0FFD1F4AE050E0628140
:10357000C7010E947D1C5C016EE2C7010E94861B90
:103580008A0D9B1D080F191F2196C330D10551F7D5
:103590004AE050E0F6016581C7010E947D1C800F62
:1035A000911FDF91CF911F910F91FF90EF90DF90CE
:1035B000CF90BF90AF9008950F93FC0186E094E008
:1035C0009183808362834383248305830F910895CD
:1035D00086E094E090933706809336061092380682
:1035E0001092390610923A0610923B0608950895FB
:1035F0000E94D6160E94F71A8CE396E00E9453218F
:103600000E942C06C5EED8E10E940E052097E1F33A
:103610000E94E518F9CF0C945D270C945D270C945B
:10362000F5270C94F527CF92DF92EF92FF920F933C
:103630001F93CF93DF936C017A01EB01E60EF71E27
:1036400000E010E0CE15DF0561F06991D601ED9143
:10365000FC910190F081E02DC6010995080F191F1A
:10366000F1CFC801DF91CF911F910F91FF90EF90A3
:10367000DF90CF9008956115710581F0DB010D9009
:103680000020E9F7AD0141505109461B570BDC0101
:10369000ED91FC910280F381E02D099480E090E0AF
:1036A0000895EF92FF920F931F93CF93DF938C01B6
:1036B000FB01C0E0D0E064917F018FEFE81AF80AC7
:1036C000662361F0D801ED91FC910190F081E02D2D
:1036D000C8010995C80FD91FF701EDCFCE01DF91C1
:1036E000CF911F910F91FF90EF900895DC01ED9124
:1036F000FC91DB0114964D915C9115976D917C9135
:103700000280F381E02D09940C943B1BDC01ED91C8
:10371000FC910190F081E02D099468E074E00C9434
:103720003B1B0F931F93CF93DF93EC010E94761BFB
:103730008C01CE010E948D1B800F911FDF91CF91D4
:103740001F910F9108950F931F93CF93DF93EC0177
:103750000E943B1B8C01CE010E948D1B800F911F8C
:10376000DF91CF911F910F9108958F929F92AF9209
:10377000BF92CF92DF92EF92FF920F931F93CF935E
:10378000DF93CDB7DEB7A1970FB6F894DEBF0FBEBB
:10379000CDBF7C01C42EE52FCB01D22E19A221E092
:1037A0002D1510F02AE0D22E8E010F5D1F4F8D2CAB
:1037B000912CA12CB12C6C2D7E2FA50194010E947F
:1037C00035278C2DD29E80191124015011098A3081
:1037D00014F4805D01C0895CF801808321153105F6
:1037E0004105510521F0C22EE32FCA01E4CFB801F3
:1037F000C7010E943B1BA1960FB6F894DEBF0FBE17
:10380000CDBFDF91CF911F910F91FF90EF90DF908F
:10381000CF90BF90AF909F908F900895CF92DF92FE
:10382000EF92FF920F931F93CF93DF93EC016A0106
:103830007B012115310579F4E881F9810190F0814E
:10384000E02D642FDF91CF911F910F91FF90EF90AA
:10385000DF90CF9009942A303105E9F477FF1AC040
:103860006DE20E94861B8C0144275527BA014C1932
:103870005D096E097F092AE0CE010E94B51B800F09
:10388000911FDF91CF911F910F91FF90EF90DF90EB
:10389000CF9008952AE0B701A601CE01DF91CF9124
:1038A0001F910F91FF90EF90DF90CF900C94B51B7C
:1038B0000F931F93CF93DF93EC019A01AB0166271F
:1038C00057FD6095762F0E940E1C8C01CE010E9440
:1038D0008D1B800F911FDF91CF911F910F91089544
:1038E0002115310541F4DC01ED91FC910190F0814D
:1038F000E02D642F09940C94B51B9A01462F50E0DB
:1039000060E070E00C94701C4F925F926F927F9217
:103910008F929F92AF92BF92CF92DF92EF92FF92DF
:103920000F931F93CF93DF93EC016A017B01B22EBB
:103930009A01AB01C701B6010E943127882319F013
:103940006BE074E027C026013701E89477F82FEF89
:103950003FEF4FE75FE7C301B2010E9431278111BA
:103960000DC02FEF3FEF4FE75FE7C301B2010E94A9
:103970007B2518161CF46FE074E00CC02FEF3FEFAE
:103980004FE75FE4C701B6010E94CA261816ACF4DF
:1039900063E174E0CE01DF91CF911F910F91FF9011
:1039A000EF90DF90CF90BF90AF909F908F907F90DF
:1039B0006F905F904F900C943B1B2FEF3FEF4FE7C2
:1039C0005FECC701B6010E947B2587FDE1CF20E0B7
:1039D00030E0A901C701B6010E947B2587FF0AC01C
:1039E0006DE2CE010E94861B8C01F7FAF094F7F885
:1039F000F09402C000E010E0A12C60E070E080E0F4
:103A00009FE3AB1441F020E030E040E251E40E943B
:103A10007F25A394F6CF9B01AC01C701B6010E949C
:103A200017256B017C010E94EC252B013C010E94B3
:103A300018269B01AC01C701B6010E9416256B0137
:103A40007C012AE0B301A201CE010E94B51B080F40
:103A5000191FBB2039F067E174E0CE010E943B1BC7
:103A6000080F191F7B2C772041F120E030E040E265
:103A700051E4C701B6010E94CE266B017C010E9471
:103A8000E7254B01AA2497FCA094BA2C2AE030E049
:103A9000B501A401CE010E940E1C080F191FC5011B
:103AA000B4010E941A269B01AC01C701B6010E9415
:103AB00016256B017C017A94D6CFC801DF91CF9196
:103AC0001F910F91FF90EF90DF90CF90BF90AF903C
:103AD0009F908F907F906F905F904F9008950C947F
:103AE000841C0F931F93CF93DF93EC010E947416F5
:103AF000688779878A879B87E881F9810680F781C3
:103B0000E02DCE01099597FF15C00E947416088517
:103B100019852A853B85601B710B820B930B0C81E9
:103B20001D812E813F81601771078207930720F363
:103B30008FEF9FEFDF91CF911F910F9108950F931A
:103B40001F93CF93DF93EC018B0167E271E00E943A
:103B5000DF21C8010E94711D97FD05C0682FCE01AD
:103B60000E94E722F6CFCE01DF91CF911F910F91F6
:103B70000895EF92FF920F931F93CF93DF93EC0181
:103B80008B01E42E67E271E00E94DF21C8010E94F0
:103B9000711DFF24E7FCF09497FD0BC08E159F0567
:103BA00041F0682FCE010E94E722C8010E94711DDA
:103BB000F3CFCE01DF91CF911F910F91FF90EF9046
:103BC0000895409140065091410620913E06309163
:103BD0003F0642175307B4F49091E8009570E1F363
:103BE0009091E80092FD19C08093F1008091400609
:103BF0009091410601968F739927892B19F48EEFC6
:103C00008093E80080914006909141060196909340
:103C100041068093400681E0089580E00895FF9278
:103C20000F931F93CF93DF938C0188E10E94E11DD6
:103C300083E00E94E11DC0E0D0E0F801EC0FFD1F21
:103C400084910E94E11DF82E80E00E94E11D8F21E9
:103C500021F02196CB30D10581F7DF91CF911F91D3
:103C60000F91FF900895615030F02091F100FC0118
:103C700020830196F8CF289884E680934306089520
:103C80002FB7FC012083F89467706093E9000895D2
:103C9000CF93DF931F92CDB7DEB7682FCE01019689
:103CA0000E94401E8091F20099819FBF0F90DF918A
:103CB000CF910895FF920F931F93CF93DF9300D07E
:103CC000CDB7DEB7F62E8A0190914206992311F006
:103CD00057FF03C08FEF9FEF2BC0682FCE010196D7
:103CE0007A830E94401E8091F20090E0A8017A81C0
:103CF000801791070CF4AC01EF2DF72FF40E84E63A
:103D0000FE1639F02898809343069091F100919324
:103D1000F7CF4115510521F08091F200882321F061
:103D200089818FBFCA0104C08BE68093E800F8CF79
:103D30000F900F90DF91CF911F910F91FF900895F9
:103D4000CF93DF931F92CDB7DEB741E050E0BE01C5
:103D50006F5F7F4F0E945A1E019719F4898190E08E
:103D600002C08FEF9FEF0F90DF91CF910895CF9317
:103D7000DF931F92CDB7DEB7682FCE0101960E9468
:103D8000401E9091E800892F807295FF04C09091A9
:103D9000F20080E4891B99819FBF0F90DF91CF9142
:103DA00008956F927F928F929F92AF92BF92CF921F
:103DB000DF92EF92FF920F931F93CF93DF931F92A7
:103DC000CDB7DEB7782E7B01C42EB52E809142068A
:103DD000882369F0042F152F8AEFD82E872D807243
:103DE000982E9AE3A92E872D8074882E11C08FEF0C
:103DF0009FEF57C0872D0E94B71E682E81110CC0FF
:103E0000DA94A9F361E070E080E090E00E94A316EC
:103E10000115110579F73BC0282F30E00217130771
:103E20000CF4602E672DCE0101960E94401E8091F9
:103E3000E80085FF29C0262D30E0021B130B9920D6
:103E400039F06A948FEF6816B1F01092F100F9CF53
:103E5000F701862D77FE07C0815058F0949190931A
:103E6000F1003196F9CF815020F091919093F100BB
:103E7000FACFE20EF31E8091E80085FF0FC0011516
:103E8000110511F481100AC089818FBFC1CF5D98DF
:103E900084E6809344068C2D9B2D03C0A092E800FD
:103EA000F3CF0F90DF91CF911F910F91FF90EF9083
:103EB000DF90CF90BF90AF909F908F907F906F904A
:103EC00008951092E90010924106109240069093D6
:103ED0003F0680933E060895CF92DF92FF920F93A4
:103EE0001F93CF93DF9300D0CDB7DEB7F82E8A01B2
:103EF0006B0101151105B1F0F601F7FE02C08491C6
:103F000001C0808149835A830E94E11D015011093B
:103F1000FFEFCF1ADF0A49815A818111EACF8FEF73
:103F20009FEF01C0CA010F900F90DF91CF911F91B9
:103F30000F91FF90DF90CF9008951F93CF93DF9361
:103F40001F92CDB7DEB7162F2091E80022FFFCCFDD
:103F5000612F79830E94331E8BEF8093E800812FBD
:103F60007981972F0F90DF91CF911F910895CF9373
:103F7000DF931F92CDB7DEB71982CE0101960E9462
:103F80003518CE0101960E94F123898190E00F90AF
:103F9000DF91CF9108951F920F920FB60F921124C7
:103FA000EF92FF920F931F932F933F934F935F9343
:103FB0006F937F938F939F93AF93BF93EF93FF93F1
:103FC000CF93DF93CDB7DEB76297DEBFCDBF109240
:103FD000E9008091E80083FFE9C068E0CE010A961D
:103FE0000E94331E82EF8093E8009A8597FF05C0F8
:103FF0008091E80080FFFCCF03C08EEF8093E80043
:10400000892F807609F0B7C08B85811105C0109289
:10401000F1001092F100C3C0282F2D7F213009F448
:10402000BEC0853049F48091E80080FFFCCF8C85CC
:1040300080688093E300B3C0863009F074C02D859A
:10404000E888F988223071F580E090E02A8B0E94A0
:10405000611F0E94B71F99E08E010F5F1F4FF8018B
:10406000392F11923A95E9F799832A892A8391E0A9
:104070009E8390E898879AEF998720914006309127
:104080004106275F3F4F3C832B838D83C7010E94EE
:10409000611F49E050E0B80180E00E946C1F0E945F
:1040A000B71F7DC0C7012A8B0E94611F2A89223257
:1040B00041F482E290E00E94FC23892B09F06FC05A
:1040C00072C0213069F488899989089711F4209386
:1040D0003D0680913D06811116C069EC71E018C063
:1040E000233009F060C08C85882381F0823019F478
:1040F00087EE91E005C0813009F055C08BED91E06D
:104100000E940F1E4AC067EB71E002C063EF71E0CE
:104110006115710509F447C0FB01449150E080E846
:104120000E946C1F3CC0873009F43DC0883021F4E8
:1041300081E08093F10033C0893089F5937099F55F
:10414000E3EBF1E081E021E096E38093E900209346
:10415000EB0034913093EC009093ED008F5F31963B
:10416000853099F78EE78093EA001092EA008C85FB
:104170008093420614C0888999890E94611F8E85A8
:10418000811105C0CE010A960E94401806C08230F7
:1041900051F4CE010A960E942424882321F08EEF48
:1041A0008093E80003C081E28093EB0062960FB633
:1041B000F894DEBF0FBECDBFDF91CF91FF91EF919D
:1041C000BF91AF919F918F917F916F915F914F912F
:1041D0003F912F911F910F91FF90EF900F900FBE85
:1041E0000F901F9018958093E9008091F20088232A
:1041F00019F08AE38093E80008951F920F920FB69A
:104200000F9211242F933F934F935F936F937F935C
:104210008F939F93AF93BF93EF93FF938091E100B0
:104220001092E10083FF0FC01092E90091E090939B
:10423000EB001092EC0092E39093ED001092420696
:1042400098E09093F00082FF1DC083E00E94F3206D
:1042500080914406882339F08091440681508093F0
:104260004406882369F080914306882359F08091A1
:104270004306815080934306811104C0289A02C0EE
:104280005D9AF1CFFF91EF91BF91AF919F918F9187
:104290007F916F915F914F913F912F910F900FBE42
:1042A0000F901F9018951092420681E08093D700DE
:1042B00080EA8093D80082E189BD09B400FEFDCF79
:1042C00061E070E080E090E00E94A31680E98093B6
:1042D000D8008CE08093E2001092E000559A209A7A
:1042E0000895FC01808191810C94F527CF93DF9391
:1042F000EC0188819981009711F00E94F5271982BD
:1043000018821D821C821B821A82DF91CF91089530
:104310000F931F93CF93DF93EC018B016F5F7F4F60
:10432000888199810E948428009731F0998388833D
:104330001B830A8381E001C080E0DF91CF911F9150
:104340000F910895CF93DF93EC0188819981892B98
:1043500029F08A819B818617970760F4CE010E941D
:104360008821882341F08C819D81892B19F4E88173
:10437000F981108281E0DF91CF910895EF92FF9251
:104380000F931F93CF93DF93EC017B018A01BA0156
:104390000E94A221811104C0CE010E94762107C093
:1043A0001D830C83B701888199810E947829CE01F1
:1043B000DF91CF911F910F91FF90EF900895FC0135
:1043C0001182108213821282158214826115710586
:1043D00059F0FB0101900020E9F7AF01415051096C
:1043E000461B570B0C94BE210895EF92FF920F933A
:1043F0001F93CF93DF93EC017B018A01BA010E94E6
:10440000A221811104C0CE010E94762107C01D8324
:104410000C83B701888199810E945629CE01DF91D2
:10442000CF911F910F91FF90EF900895CF93DF935D
:10443000EC01FB018617970761F0608171816115BE
:10444000710529F0448155810E94BE2102C00E945D
:104450007621CE01DF91CF910895FC011182108267
:1044600013821282158214820C941622CF93DF934A
:10447000EC016115710561F0FB0101900020E9F785
:10448000AF0141505109461B570B0E94BE2102C08B
:104490000E947621CE01DF91CF9108950F931F9353
:1044A000CF93DF93CDB7DEB762970FB6F894DEBF38
:1044B0000FBECDBF8C01CB01F80111821082138297
:1044C00012821582148250E0BE016F5F7F4F0E94FE
:1044D0007F29BE016F5F7F4FC8010E94362262961E
:1044E0000FB6F894DEBF0FBECDBFDF91CF911F9105
:1044F0000F9108950F931F93CF93DF9300D0CDB703
:10450000DEB78C016115710561F0CB0169837A8397
:104510000E945D29AC0169817A81C8010E94F52160
:1045200002C00E947621C8010F900F90DF91CF91B9
:104530001F910F910895FC01118210821382128243
:10454000158214820C947A22EF92FF920F931F939C
:10455000CF93DF93EC017B010C811D816115710507
:1045600011F480E016C04115510591F0040F151F9C
:10457000B8010E94A2218823A1F3288139818C816E
:104580009D81B701820F931F0E9478291D830C83A0
:1045900081E0DF91CF911F910F91FF90EF900895EF
:1045A000FB0144815581608171810C94A4226115C5
:1045B000710559F0FB0101900020E9F7AF0141506E
:1045C0005109461B570B0C94A42280E00895CF9309
:1045D000DF9300D0CDB7DEB769831A8241E050E0A7
:1045E000BE016F5F7F4F0E94A4220F900F90DF915A
:1045F000CF910895EF92FF920F931F93CF93DF9384
:1046000000D000D0CDB7DEB77C01862F4AE050E065
:104610008E010F5F1F4FB80190E00E947F29F801C3
:1046200001900020E9F7AF0141505109401B510BA7
:10463000B801C7010E94A4220F900F900F900F9015
:10464000DF91CF911F910F91FF90EF900895CF933D
:10465000DF93EC01FB0144815581608171810E94EF
:10466000A422811103C0CE010E947621CE01DF91E8
:10467000CF910895CF93DF93EC016115710569F037
:10468000FB0101900020E9F7AF0141505109461BA1
:10469000570B0E94A422811103C0CE010E947621F3
:1046A000CE01DF91CF910895FC0124813581232B28
:1046B00031F421E061157105A1F0FB0108C0FC0196
:1046C000808191816115710531F421E0FC018081C7
:1046D000882339F005C00E946F2921E0892B09F059
:1046E00020E0822F0895AF92BF92CF92DF92EF9297
:1046F000FF920F931F93CF93DF937C01DC01CD904A
:10470000DC901197C114D10409F441C01496CD91E5
:10471000DC9115972097D9F156018501BFEFAB1AAF
:10472000BB0AF8018081992787FD90950E944E2948
:10473000892B99F72197CC0DDD1D8881992787FD5D
:1047400090950E944E29892B91F4AE014F5F5F4FE7
:10475000401B510BD70115965C934E931497C016CE
:10476000D10650F4B801C6010E94662905C0C017E1
:10477000D10758F32197E1CFD701ED91FC91119723
:1047800014968D919C911597E80FF91F1082DF9177
:10479000CF911F910F91FF90EF90DF90CF90BF903E
:1047A000AF9008950895FF920F931F93CF93DF93D7
:1047B000EC01F62EE881F9810480F581E02D099560
:1047C0008C01E881F9810680F781E02D6F2DCE0103
:1047D0000995C8019927DF91CF911F910F91FF9003
:1047E0000895FC0120812F5F208349E150E067E7B5
:1047F00072E080E80C946C1F45E650E060E972E0DE
:1048000080E80C946C1FEF92FF920F931F93CF934D
:10481000DF931F92CDB7DEB789838B017A0141E028
:1048200050E0BE016F5F7F4F84E00E94D11EA70160
:10483000B80184E40E94D11E0F90DF91CF911F91A7
:104840000F91FF90EF900895FC0191818081813A52
:1048500031F481E0913091F0933089F411C08132CC
:1048600071F49B3021F4828180930F0105C09A304E
:1048700031F4828180930E0181E00895089580E0F3
:10488000089548E050E082E00C940324CF93DF9336
:10489000DC01683818F0E8E7E60F25C0E62FF0E005
:1048A00067FF11C0E058F10981E090E001C0880F76
:1048B000EA95EAF714969C911497982B14969C937A
:1048C0001497E0E010C0E950FE4FE491EE2309F4A4
:1048D00040C0E7FF08C014968C911497826014962C
:1048E0008C931497EF7716968C9116978E1741F14B
:1048F00017968C9117978E1719F118968C91189717
:104900008E17F1F019968C9119978E17C9F01A9697
:104910008C911A978E17A1F01B968C911B978E176E
:1049200079F080E090E0ED01C80FD91F2E812111B0
:1049300002C0EE8305C0019686309105A1F709C03B
:10494000BD016C5F7F4FCD010E94412481E090E06A
:1049500008C081E090E013969C938E93129780E0BC
:1049600090E0DF91CF910895683818F0E8E7E60FFE
:1049700025C0E62FF0E067FF12C0E058F10921E002
:1049800030E001C0220FEA95EAF72095DC01149689
:104990003C911497322314963C93E0E00FC0E95009
:1049A000FE4FE491EE2329F1E7FF08C0DC011496E5
:1049B0002C9114972D7F14962C93EF7720E030E004
:1049C000EE2351F0DC01A20FB31F16964C911697FF
:1049D0004E1302C016961C922F5F3F4F26303105B2
:1049E00079F7BC016C5F7F4F0E94412481E090E029
:1049F000089580E090E00895FC01168217821086E9
:104A00001186128613861482BC016C5F7F4F0C9452
:104A100041241092510610924806109247068DE1EB
:104A200094E0909346068093450608955058BB271E
:104A3000AA270ED075C166D130F06BD120F031F4C9
:104A40009F3F11F41EF45BC10EF4E095E7FB51C1EA
:104A5000E92F77D180F3BA176207730784079507A8
:104A600018F071F49EF58FC10EF4E0950B2EBA2F5D
:104A7000A02D0B01B90190010C01CA01A001112464
:104A8000FF27591B99F0593F50F4503E68F11A1610
:104A9000F040A22F232F342F4427585FF3CF4695A1
:104AA00037952795A795F0405395C9F77EF41F16C3
:104AB000BA0B620B730B840BBAF09150A1F0FF0F8D
:104AC000BB1F661F771F881FC2F70EC0BA0F621F79
:104AD000731F841F48F4879577956795B795F79569
:104AE0009E3F08F0B3CF9395880F08F09927EE0FFB
:104AF000979587950895D9D008F481E008950CD052
:104B00000FC107D140F0FED030F021F45F3F19F023
:104B1000F0C0511139C1F3C014D198F39923C9F3EE
:104B20005523B1F3951B550BBB27AA2762177307B3
:104B3000840738F09F5F5F4F220F331F441FAA1F67
:104B4000A9F333D00E2E3AF0E0E830D09150504027
:104B5000E695001CCAF729D0FE2F27D0660F771FD5
:104B6000881FBB1F261737074807AB07B0E809F0B7
:104B7000BB0B802DBF01FF2793585F4F2AF09E3F4C
:104B8000510568F0B6C000C15F3FECF3983EDCF31E
:104B9000869577956795B795F7959F5FC9F7880FC5
:104BA000911D9695879597F90895E1E0660F771F17
:104BB000881FBB1F621773078407BA0720F0621BA8
:104BC000730B840BBA0BEE1F88F7E095089504D0A1
:104BD0006894B111D9C00895BCD088F09F5790F067
:104BE000B92F9927B751A0F0D1F0660F771F881F12
:104BF000991F1AF0BA95C9F712C0B13081F0C3D02D
:104C0000B1E00895C0C0672F782F8827B85F39F0CA
:104C1000B93FCCF3869577956795B395D9F73EF470
:104C200090958095709561957F4F8F4F9F4F089518
:104C3000E89409C097FB3EF4909580957095619536
:104C40007F4F8F4F9F4F9923A9F0F92F96E9BB27EC
:104C50009395F695879577956795B795F111F8CF68
:104C6000FAF4BB0F11F460FF1BC06F5F7F4F8F4FD3
:104C70009F4F16C0882311F096E911C0772321F0C9
:104C80009EE8872F762F05C0662371F096E8862F61
:104C900070E060E02AF09A95660F771F881FDAF7B8
:104CA000880F9695879597F90895990F0008550FE5
:104CB000AA0BE0E8FEEF16161706E807F907C0F0A2
:104CC00012161306E407F50798F0621B730B840BAA
:104CD000950B39F40A2661F0232B242B252B21F484
:104CE00008950A2609F4A140A6958FEF811D811D24
:104CF000089597F99F6780E870E060E008959FEF5E
:104D000080EC089500240A94161617061806090662
:104D1000089500240A941216130614060506089531
:104D2000092E0394000C11F4882352F0BB0F40F4B9
:104D3000BF2B11F460FF04C06F5F7F4F8F4F9F4FF9
:104D4000089557FD9058440F551F59F05F3F71F07B
:104D50004795880F97FB991F61F09F3F79F08795E2
:104D60000895121613061406551FF2CF4695F1DF6B
:104D700008C0161617061806991FF1CF86957105FB
:104D8000610508940895E894BB2766277727CB012F
:104D900097F908958ADF08F48FEF08950BD0C0CFFC
:104DA000B1DF28F0B6DF18F0952309F0A2CFA7CF26
:104DB0001124EACFC6DFA0F3959FD1F3950F50E001
:104DC000551F629FF001729FBB27F00DB11D639FBD
:104DD000AA27F00DB11DAA1F649F6627B00DA11D63
:104DE000661F829F2227B00DA11D621F739FB00D09
:104DF000A11D621F839FA00D611D221F749F332779
:104E0000A00D611D231F849F600D211D822F762F11
:104E10006A2F11249F5750408AF0E1F088234AF00E
:104E2000EE0FFF1FBB1F661F771F881F915050405A
:104E3000A9F79E3F510570F05CCFA6CF5F3FECF322
:104E4000983EDCF3869577956795B795F795E79546
:104E50009F5FC1F7FE2B880F911D9695879597F957
:104E6000089523DF880B990B0895A1E21A2EAA1B3F
:104E7000BB1BFD010DC0AA1FBB1FEE1FFF1FA2170A
:104E8000B307E407F50720F0A21BB30BE40BF50B07
:104E9000661F771F881F991F1A9469F76095709590
:104EA000809590959B01AC01BD01CF010895EE0F57
:104EB000FF1F0590F491E02D0994CF93DF9382308A
:104EC000910510F482E090E0E0915406F0915506CF
:104ED00020E030E0A0E0B0E0309739F1408151812E
:104EE00048175907B8F04817590771F48281938120
:104EF000109729F013969C938E9312972CC0909341
:104F000055068093540627C02115310531F042170C
:104F1000530718F0A901DB0101C0EF019A01BD019F
:104F2000DF010280F381E02DD7CF21153105F9F0A3
:104F3000281B390B2430310580F48A819B8161154F
:104F4000710521F0FB019383828304C09093550681
:104F500080935406FE01329644C0FE01E20FF31F17
:104F60008193919322503109398328833AC020914B
:104F7000520630915306232B41F4209102013091C7
:104F80000301309353062093520620910001309183
:104F900001012115310541F42DB73EB740910401BF
:104FA00050910501241B350BE0915206F0915306F8
:104FB000E217F307A0F42E1B3F0B2817390778F0F0
:104FC000AC014E5F5F4F2417350748F04E0F5F1F4F
:104FD00050935306409352068193919302C0E0E0B0
:104FE000F0E0CF01DF91CF910895CF93DF93009749
:104FF00009F487C0FC01329713821282C0915406D3
:10500000D0915506209781F420813181280F391FD6
:1050100080915206909153068217930779F5F09389
:105020005306E09352066DC0DE0120E030E0AE177B
:10503000BF0750F412964D915C9113979D01411555
:10504000510509F1DA01F3CFB383A2834081518185
:10505000840F951F8A179B0771F48D919C9111976E
:10506000840F951F02969183808312968D919C9157
:105070001397938382832115310529F4F093550604
:10508000E09354063EC0D9011396FC93EE93129719
:105090004D915D91A40FB51FEA17FB0779F480814C
:1050A0009181840F951F0296D90111969C938E933E
:1050B0008281938113969C938E931297E0E0F0E0A7
:1050C0008A819B81009719F0FE01EC01F9CFCE0196
:1050D000029628813981820F931F209152063091C8
:1050E00053062817390769F4309729F410925506AA
:1050F0001092540602C013821282D0935306C093BA
:105100005206DF91CF910895A0E0B0E0EAE8F8E21E
:105110000C94C629EC01CB01209719F40E945D275D
:10512000B8C0FE01E60FF71F9E0122503109E217B9
:10513000F30708F4ACC0D9010D911C911197061723
:105140001707B8F00530110508F49FC0A8014450B6
:1051500051094617570708F498C002501109061B59
:10516000170B019311936D937C93CF010E94F52748
:105170008CC05B01A01AB10A4E01800E911EA09155
:105180005406B0915506612C712C60E070E01097C8
:1051900009F449C0A815B905C9F5ED90FC9011971F
:1051A000670142E0C40ED11CCA14DB0478F1470148
:1051B0008A189B08640142E0C40ED11C1296BC9070
:1051C00012971396AC91B5E0CB16D10440F0B282A1
:1051D000A38391828082D9018D939C9309C00E5F35
:1051E0001F4F0E0D1F1DF90111830083EB2DFA2FA8
:1051F0006115710531F0DB011396FC93EE93129764
:1052000044C0F0935506E09354063FC06D917C91E5
:1052100011976616770608F43B01BD0112960D90B2
:10522000BC91A02DB4CF60915206709153066815C1
:105230007905E9F468167906D0F44091000150919F
:1052400001014115510541F44DB75EB7609104016C
:1052500070910501461B570BE417F507C0F4F09356
:105260005306E0935206F901918380830EC00E9499
:105270005D277C01009759F0A801BE010E946629B4
:10528000CE010E94F527C70104C0CE0102C080E014
:1052900090E0CDB7DEB7EEE00C94E22991115FC04B
:1052A000803219F089508550D0F70895FB01DC0158
:1052B00005900D920020E1F70895FC010590002073
:1052C000E9F7809590958E0F9F1F0895FB01DC01F3
:1052D00002C001900D9241505040D8F70895FB0153
:1052E000DC018D91019080190110D9F3990B08957B
:1052F000FB01DC0101900D920020E1F70895453299
:10530000510520F4423010F00C948A29FB011082E0
:10531000CB010895BB274A3031F4992322F4BDE232
:10532000909581959F4F0C949629BB27FB0155279B
:10533000AA27880F991FAA1FA41710F0A41B8395F2
:105340005051B9F7A05DAA3308F0A95DA193009769
:1053500079F7B111B1931192CB010C94B22999272D
:1053600088270895DC01FC01672F71917723E1F70D
:10537000329704C07C916D9370836291AE17BF0722
:10538000C8F308952F923F924F925F926F927F924F
:105390008F929F92AF92BF92CF92DF92EF92FF9245
:1053A0000F931F93CF93DF93CDB7DEB7CA1BDB0BF1
:1053B0000FB6F894DEBF0FBECDBF09942A88398896
:1053C00048885F846E847D848C849B84AA84B9849D
:1053D000C884DF80EE80FD800C811B81AA81B981A9
:1053E000CE0FD11D0FB6F894DEBF0FBECDBFED01BD
:1053F000089513E0CCE0D3E004C0FE010E945927D9
:0C5400002296C031D107C9F7F894FFCF05
:10540C0000005606800000E10000000000000101D1
:10541C005858585858585831303048756D65646133
:10542C00643A20002025090054656D706572617422
:10543C007572613A2000202A43200048756D3A00AD
:10544C00252C00546D703A002A430053656E736F1F
:10545C00723A0074656D700054656D70657261749C
:10546C0075726120636F6E73756C7461646120700A
:10547C006F722041504920524553540068756D009D
:10548C0048756D6564616420636F6E73756C7461CF
:10549C00646120706F722041504920524553540072
:1054AC00415049205245535420454E2050524F43B1
:1054BC0045534F004572726F7220656E206C6120EF
:1054CC006C6563747572612064656C2073656E73B2
:1054DC006F722044485421004572726F72204C65E3
:1054EC0063747572612053656E736F720053656ED1
:1054FC00736F722044485431310064617465002B21
:10550C002544202B2554002F726F6F742F50726F0F
:10551C00796563746F2F4C6F67732F73656E736F40
:10552C00722E6C6F67002C54656D706572617475AA
:10553C0072612C002C48756D656461642C00496E99
:10554C00666F726D6163696F6E20657363726974E7
:10555C0061004572726F722065736372696269656E
:10556C006E646F206461746F7320656E20656C20AF
:10557C006C6F6700707974686F6E0073637269701A
:10558C0074732F73656E645F646174612E7079003F
:10559C004C6563747572612064652074656D70650B
:1055AC0072617475726120792068756D65646164CF
:1055BC00207265616C697A616461004C6563747515
:1055CC0072612064652074656D70657261747572AA
:1055DC006120792068756D656461642073696E2043
:1055EC006572726F7265730044485431312D3031DD
:1055FC000056616C6F7220636F6E7461646F722001
:10560C00646520736567756E646F733A00496E66E6
:10561C006F726D6163696F6E20656E76696164612E
:10562C0020616C207365727669646F720050726FC2
:10563C00796563746F2041726475696E6F004461A3
:10564C006E69656C20436F7272656100000000002A
:10565C00350A131B000000007F0DBF0D910E9B0E31
:10566C00B50E280E6C732000207C2061776B2027F0
:10567C004E523D3D0027002F006C73006D6B64692A
:10568C0072002D7000726D00726D64697200000002
:10569C000000E90E000F601035104D10FF0EFE00DB
:1056AC002F62696E2F617368002D6300000000008B
:1056BC00CC10131B21112B114311CB100000000037
:1056CC001D14F312B014BA1407158C128D128A1310
:1056DC00D21435135F138912000000008B15131BB5
:1056EC00251500000000D8171F1802181218EE1705
:1056FC00FF17000000003619131BB818D118C31877
:10570C00141900000000A21A0D0A006E616E0069E7
:10571C006E66006F7666002E0000000000D3231327
:08572C001B4624B424FC2400F8
:00000001FF
